{
  "_format": "hh-sol-artifact-1",
  "contractName": "OneTimeSaleToken",
  "sourceName": "contracts/OneTimeSaleToken.sol",
  "abi": [
    {
      "inputs": [
        {
          "internalType": "string",
          "name": "name",
          "type": "string"
        },
        {
          "internalType": "string",
          "name": "symbol",
          "type": "string"
        },
        {
          "internalType": "uint256",
          "name": "initialSupply",
          "type": "uint256"
        },
        {
          "internalType": "uint256",
          "name": "_salePrice",
          "type": "uint256"
        },
        {
          "internalType": "string",
          "name": "_metaData",
          "type": "string"
        },
        {
          "internalType": "address",
          "name": "_payoutAddress",
          "type": "address"
        }
      ],
      "stateMutability": "nonpayable",
      "type": "constructor"
    },
    {
      "inputs": [
        {
          "internalType": "address",
          "name": "spender",
          "type": "address"
        },
        {
          "internalType": "uint256",
          "name": "allowance",
          "type": "uint256"
        },
        {
          "internalType": "uint256",
          "name": "needed",
          "type": "uint256"
        }
      ],
      "name": "ERC20InsufficientAllowance",
      "type": "error"
    },
    {
      "inputs": [
        {
          "internalType": "address",
          "name": "sender",
          "type": "address"
        },
        {
          "internalType": "uint256",
          "name": "balance",
          "type": "uint256"
        },
        {
          "internalType": "uint256",
          "name": "needed",
          "type": "uint256"
        }
      ],
      "name": "ERC20InsufficientBalance",
      "type": "error"
    },
    {
      "inputs": [
        {
          "internalType": "address",
          "name": "approver",
          "type": "address"
        }
      ],
      "name": "ERC20InvalidApprover",
      "type": "error"
    },
    {
      "inputs": [
        {
          "internalType": "address",
          "name": "receiver",
          "type": "address"
        }
      ],
      "name": "ERC20InvalidReceiver",
      "type": "error"
    },
    {
      "inputs": [
        {
          "internalType": "address",
          "name": "sender",
          "type": "address"
        }
      ],
      "name": "ERC20InvalidSender",
      "type": "error"
    },
    {
      "inputs": [
        {
          "internalType": "address",
          "name": "spender",
          "type": "address"
        }
      ],
      "name": "ERC20InvalidSpender",
      "type": "error"
    },
    {
      "inputs": [
        {
          "internalType": "address",
          "name": "owner",
          "type": "address"
        }
      ],
      "name": "OwnableInvalidOwner",
      "type": "error"
    },
    {
      "inputs": [
        {
          "internalType": "address",
          "name": "account",
          "type": "address"
        }
      ],
      "name": "OwnableUnauthorizedAccount",
      "type": "error"
    },
    {
      "anonymous": false,
      "inputs": [
        {
          "indexed": true,
          "internalType": "address",
          "name": "owner",
          "type": "address"
        },
        {
          "indexed": true,
          "internalType": "address",
          "name": "spender",
          "type": "address"
        },
        {
          "indexed": false,
          "internalType": "uint256",
          "name": "value",
          "type": "uint256"
        }
      ],
      "name": "Approval",
      "type": "event"
    },
    {
      "anonymous": false,
      "inputs": [
        {
          "indexed": true,
          "internalType": "address",
          "name": "owner",
          "type": "address"
        },
        {
          "indexed": true,
          "internalType": "string",
          "name": "name",
          "type": "string"
        },
        {
          "indexed": false,
          "internalType": "string",
          "name": "email",
          "type": "string"
        },
        {
          "indexed": false,
          "internalType": "string",
          "name": "accreditationNumber",
          "type": "string"
        }
      ],
      "name": "AuditorRegistered",
      "type": "event"
    },
    {
      "anonymous": false,
      "inputs": [
        {
          "indexed": true,
          "internalType": "address",
          "name": "previousOwner",
          "type": "address"
        },
        {
          "indexed": true,
          "internalType": "address",
          "name": "newOwner",
          "type": "address"
        }
      ],
      "name": "OwnershipTransferred",
      "type": "event"
    },
    {
      "anonymous": false,
      "inputs": [
        {
          "indexed": true,
          "internalType": "address",
          "name": "burner",
          "type": "address"
        },
        {
          "indexed": false,
          "internalType": "uint256",
          "name": "amount",
          "type": "uint256"
        },
        {
          "indexed": false,
          "internalType": "string",
          "name": "metaData",
          "type": "string"
        }
      ],
      "name": "TokensBurned",
      "type": "event"
    },
    {
      "anonymous": false,
      "inputs": [
        {
          "indexed": true,
          "internalType": "address",
          "name": "buyer",
          "type": "address"
        },
        {
          "indexed": false,
          "internalType": "uint256",
          "name": "amount",
          "type": "uint256"
        }
      ],
      "name": "TokensPurchased",
      "type": "event"
    },
    {
      "anonymous": false,
      "inputs": [
        {
          "indexed": true,
          "internalType": "address",
          "name": "from",
          "type": "address"
        },
        {
          "indexed": true,
          "internalType": "address",
          "name": "to",
          "type": "address"
        },
        {
          "indexed": false,
          "internalType": "uint256",
          "name": "value",
          "type": "uint256"
        }
      ],
      "name": "Transfer",
      "type": "event"
    },
    {
      "inputs": [
        {
          "internalType": "address",
          "name": "owner",
          "type": "address"
        },
        {
          "internalType": "address",
          "name": "spender",
          "type": "address"
        }
      ],
      "name": "allowance",
      "outputs": [
        {
          "internalType": "uint256",
          "name": "",
          "type": "uint256"
        }
      ],
      "stateMutability": "view",
      "type": "function"
    },
    {
      "inputs": [
        {
          "internalType": "address",
          "name": "spender",
          "type": "address"
        },
        {
          "internalType": "uint256",
          "name": "value",
          "type": "uint256"
        }
      ],
      "name": "approve",
      "outputs": [
        {
          "internalType": "bool",
          "name": "",
          "type": "bool"
        }
      ],
      "stateMutability": "nonpayable",
      "type": "function"
    },
    {
      "inputs": [
        {
          "internalType": "address",
          "name": "account",
          "type": "address"
        }
      ],
      "name": "balanceOf",
      "outputs": [
        {
          "internalType": "uint256",
          "name": "",
          "type": "uint256"
        }
      ],
      "stateMutability": "view",
      "type": "function"
    },
    {
      "inputs": [
        {
          "internalType": "uint256",
          "name": "amount",
          "type": "uint256"
        }
      ],
      "name": "burnToken",
      "outputs": [],
      "stateMutability": "nonpayable",
      "type": "function"
    },
    {
      "inputs": [
        {
          "internalType": "uint256",
          "name": "amount",
          "type": "uint256"
        }
      ],
      "name": "buyToken",
      "outputs": [],
      "stateMutability": "payable",
      "type": "function"
    },
    {
      "inputs": [],
      "name": "decimals",
      "outputs": [
        {
          "internalType": "uint8",
          "name": "",
          "type": "uint8"
        }
      ],
      "stateMutability": "view",
      "type": "function"
    },
    {
      "inputs": [
        {
          "internalType": "address",
          "name": "account",
          "type": "address"
        }
      ],
      "name": "getPurchasedTokens",
      "outputs": [
        {
          "internalType": "uint256",
          "name": "",
          "type": "uint256"
        }
      ],
      "stateMutability": "view",
      "type": "function"
    },
    {
      "inputs": [],
      "name": "getUnsoldTokens",
      "outputs": [
        {
          "internalType": "uint256",
          "name": "",
          "type": "uint256"
        }
      ],
      "stateMutability": "view",
      "type": "function"
    },
    {
      "inputs": [],
      "name": "metaData",
      "outputs": [
        {
          "internalType": "string",
          "name": "",
          "type": "string"
        }
      ],
      "stateMutability": "view",
      "type": "function"
    },
    {
      "inputs": [
        {
          "internalType": "uint256",
          "name": "amount",
          "type": "uint256"
        }
      ],
      "name": "mint",
      "outputs": [],
      "stateMutability": "nonpayable",
      "type": "function"
    },
    {
      "inputs": [],
      "name": "name",
      "outputs": [
        {
          "internalType": "string",
          "name": "",
          "type": "string"
        }
      ],
      "stateMutability": "view",
      "type": "function"
    },
    {
      "inputs": [],
      "name": "owner",
      "outputs": [
        {
          "internalType": "address",
          "name": "",
          "type": "address"
        }
      ],
      "stateMutability": "view",
      "type": "function"
    },
    {
      "inputs": [],
      "name": "payoutAddress",
      "outputs": [
        {
          "internalType": "address",
          "name": "",
          "type": "address"
        }
      ],
      "stateMutability": "view",
      "type": "function"
    },
    {
      "inputs": [
        {
          "internalType": "address",
          "name": "",
          "type": "address"
        }
      ],
      "name": "purchasedTokens",
      "outputs": [
        {
          "internalType": "uint256",
          "name": "",
          "type": "uint256"
        }
      ],
      "stateMutability": "view",
      "type": "function"
    },
    {
      "inputs": [
        {
          "internalType": "string",
          "name": "name",
          "type": "string"
        },
        {
          "internalType": "string",
          "name": "email",
          "type": "string"
        },
        {
          "internalType": "string",
          "name": "accreditationNumber",
          "type": "string"
        }
      ],
      "name": "registerAuditor",
      "outputs": [],
      "stateMutability": "nonpayable",
      "type": "function"
    },
    {
      "inputs": [],
      "name": "renounceOwnership",
      "outputs": [],
      "stateMutability": "nonpayable",
      "type": "function"
    },
    {
      "inputs": [],
      "name": "salePrice",
      "outputs": [
        {
          "internalType": "uint256",
          "name": "",
          "type": "uint256"
        }
      ],
      "stateMutability": "view",
      "type": "function"
    },
    {
      "inputs": [],
      "name": "symbol",
      "outputs": [
        {
          "internalType": "string",
          "name": "",
          "type": "string"
        }
      ],
      "stateMutability": "view",
      "type": "function"
    },
    {
      "inputs": [],
      "name": "totalSupply",
      "outputs": [
        {
          "internalType": "uint256",
          "name": "",
          "type": "uint256"
        }
      ],
      "stateMutability": "view",
      "type": "function"
    },
    {
      "inputs": [
        {
          "internalType": "address",
          "name": "to",
          "type": "address"
        },
        {
          "internalType": "uint256",
          "name": "value",
          "type": "uint256"
        }
      ],
      "name": "transfer",
      "outputs": [
        {
          "internalType": "bool",
          "name": "",
          "type": "bool"
        }
      ],
      "stateMutability": "nonpayable",
      "type": "function"
    },
    {
      "inputs": [
        {
          "internalType": "address",
          "name": "from",
          "type": "address"
        },
        {
          "internalType": "address",
          "name": "to",
          "type": "address"
        },
        {
          "internalType": "uint256",
          "name": "value",
          "type": "uint256"
        }
      ],
      "name": "transferFrom",
      "outputs": [
        {
          "internalType": "bool",
          "name": "",
          "type": "bool"
        }
      ],
      "stateMutability": "nonpayable",
      "type": "function"
    },
    {
      "inputs": [
        {
          "internalType": "address",
          "name": "newOwner",
          "type": "address"
        }
      ],
      "name": "transferOwnership",
      "outputs": [],
      "stateMutability": "nonpayable",
      "type": "function"
    }
  ],
  "bytecode": "0x60806040523480156200001157600080fd5b50604051620028cc380380620028cc833981810160405281019062000037919062000715565b33868681600390816200004b919062000a4f565b5080600490816200005d919062000a4f565b505050600073ffffffffffffffffffffffffffffffffffffffff168173ffffffffffffffffffffffffffffffffffffffff1603620000d55760006040517f1e4fbdf7000000000000000000000000000000000000000000000000000000008152600401620000cc919062000b47565b60405180910390fd5b620000e6816200015f60201b60201c565b50620000f933856200022560201b60201c565b82600681905550816007908162000111919062000a4f565b5080600860006101000a81548173ffffffffffffffffffffffffffffffffffffffff021916908373ffffffffffffffffffffffffffffffffffffffff16021790555050505050505062000c39565b6000600560009054906101000a900473ffffffffffffffffffffffffffffffffffffffff16905081600560006101000a81548173ffffffffffffffffffffffffffffffffffffffff021916908373ffffffffffffffffffffffffffffffffffffffff1602179055508173ffffffffffffffffffffffffffffffffffffffff168173ffffffffffffffffffffffffffffffffffffffff167f8be0079c531659141344cd1fd0a4f28419497f9722a3daafe3b4186f6b6457e060405160405180910390a35050565b600073ffffffffffffffffffffffffffffffffffffffff168273ffffffffffffffffffffffffffffffffffffffff16036200029a5760006040517fec442f0500000000000000000000000000000000000000000000000000000000815260040162000291919062000b47565b60405180910390fd5b620002ae60008383620002b260201b60201c565b5050565b600073ffffffffffffffffffffffffffffffffffffffff168373ffffffffffffffffffffffffffffffffffffffff160362000308578060026000828254620002fb919062000b93565b92505081905550620003de565b60008060008573ffffffffffffffffffffffffffffffffffffffff1673ffffffffffffffffffffffffffffffffffffffff1681526020019081526020016000205490508181101562000397578381836040517fe450d38c0000000000000000000000000000000000000000000000000000000081526004016200038e9392919062000bdf565b60405180910390fd5b8181036000808673ffffffffffffffffffffffffffffffffffffffff1673ffffffffffffffffffffffffffffffffffffffff16815260200190815260200160002081905550505b600073ffffffffffffffffffffffffffffffffffffffff168273ffffffffffffffffffffffffffffffffffffffff160362000429578060026000828254039250508190555062000476565b806000808473ffffffffffffffffffffffffffffffffffffffff1673ffffffffffffffffffffffffffffffffffffffff168152602001908152602001600020600082825401925050819055505b8173ffffffffffffffffffffffffffffffffffffffff168373ffffffffffffffffffffffffffffffffffffffff167fddf252ad1be2c89b69c2b068fc378daa952ba7f163c4a11628f55a4df523b3ef83604051620004d5919062000c1c565b60405180910390a3505050565b6000604051905090565b600080fd5b600080fd5b600080fd5b600080fd5b6000601f19601f8301169050919050565b7f4e487b7100000000000000000000000000000000000000000000000000000000600052604160045260246000fd5b6200054b8262000500565b810181811067ffffffffffffffff821117156200056d576200056c62000511565b5b80604052505050565b600062000582620004e2565b905062000590828262000540565b919050565b600067ffffffffffffffff821115620005b357620005b262000511565b5b620005be8262000500565b9050602081019050919050565b60005b83811015620005eb578082015181840152602081019050620005ce565b60008484015250505050565b60006200060e620006088462000595565b62000576565b9050828152602081018484840111156200062d576200062c620004fb565b5b6200063a848285620005cb565b509392505050565b600082601f8301126200065a5762000659620004f6565b5b81516200066c848260208601620005f7565b91505092915050565b6000819050919050565b6200068a8162000675565b81146200069657600080fd5b50565b600081519050620006aa816200067f565b92915050565b600073ffffffffffffffffffffffffffffffffffffffff82169050919050565b6000620006dd82620006b0565b9050919050565b620006ef81620006d0565b8114620006fb57600080fd5b50565b6000815190506200070f81620006e4565b92915050565b60008060008060008060c08789031215620007355762000734620004ec565b5b600087015167ffffffffffffffff811115620007565762000755620004f1565b5b6200076489828a0162000642565b965050602087015167ffffffffffffffff811115620007885762000787620004f1565b5b6200079689828a0162000642565b9550506040620007a989828a0162000699565b9450506060620007bc89828a0162000699565b935050608087015167ffffffffffffffff811115620007e057620007df620004f1565b5b620007ee89828a0162000642565b92505060a06200080189828a01620006fe565b9150509295509295509295565b600081519050919050565b7f4e487b7100000000000000000000000000000000000000000000000000000000600052602260045260246000fd5b600060028204905060018216806200086157607f821691505b60208210810362000877576200087662000819565b5b50919050565b60008190508160005260206000209050919050565b60006020601f8301049050919050565b600082821b905092915050565b600060088302620008e17fffffffffffffffffffffffffffffffffffffffffffffffffffffffffffffffff82620008a2565b620008ed8683620008a2565b95508019841693508086168417925050509392505050565b6000819050919050565b6000620009306200092a620009248462000675565b62000905565b62000675565b9050919050565b6000819050919050565b6200094c836200090f565b620009646200095b8262000937565b848454620008af565b825550505050565b600090565b6200097b6200096c565b6200098881848462000941565b505050565b5b81811015620009b057620009a460008262000971565b6001810190506200098e565b5050565b601f821115620009ff57620009c9816200087d565b620009d48462000892565b81016020851015620009e4578190505b620009fc620009f38562000892565b8301826200098d565b50505b505050565b600082821c905092915050565b600062000a246000198460080262000a04565b1980831691505092915050565b600062000a3f838362000a11565b9150826002028217905092915050565b62000a5a826200080e565b67ffffffffffffffff81111562000a765762000a7562000511565b5b62000a82825462000848565b62000a8f828285620009b4565b600060209050601f83116001811462000ac7576000841562000ab2578287015190505b62000abe858262000a31565b86555062000b2e565b601f19841662000ad7866200087d565b60005b8281101562000b015784890151825560018201915060208501945060208101905062000ada565b8683101562000b21578489015162000b1d601f89168262000a11565b8355505b6001600288020188555050505b505050505050565b62000b4181620006d0565b82525050565b600060208201905062000b5e600083018462000b36565b92915050565b7f4e487b7100000000000000000000000000000000000000000000000000000000600052601160045260246000fd5b600062000ba08262000675565b915062000bad8362000675565b925082820190508082111562000bc85762000bc762000b64565b5b92915050565b62000bd98162000675565b82525050565b600060608201905062000bf6600083018662000b36565b62000c05602083018562000bce565b62000c14604083018462000bce565b949350505050565b600060208201905062000c33600083018462000bce565b92915050565b611c838062000c496000396000f3fe6080604052600436106101355760003560e01c806370a08231116100ab578063a0712d681161006f578063a0712d681461041d578063a9059cbb14610446578063baf2a4eb14610483578063dd62ed3e146104ae578063f2fde38b146104eb578063f51f96dd1461051457610135565b806370a082311461034a578063715018a6146103875780637b47ec1a1461039e5780638da5cb5b146103c757806395d89b41146103f257610135565b8063313ce567116100fd578063313ce567146102265780634bae6f3f1461025157806354ed08c81461028e5780635b8d02d7146102cb578063647d1b61146102f65780636d00e5011461031f57610135565b806306fdde031461013a578063095ea7b31461016557806318160ddd146101a257806323b872dd146101cd5780632d296bf11461020a575b600080fd5b34801561014657600080fd5b5061014f61053f565b60405161015c9190611452565b60405180910390f35b34801561017157600080fd5b5061018c6004803603810190610187919061151c565b6105d1565b6040516101999190611577565b60405180910390f35b3480156101ae57600080fd5b506101b76105f4565b6040516101c491906115a1565b60405180910390f35b3480156101d957600080fd5b506101f460048036038101906101ef91906115bc565b6105fe565b6040516102019190611577565b60405180910390f35b610224600480360381019061021f919061160f565b61062d565b005b34801561023257600080fd5b5061023b610779565b6040516102489190611658565b60405180910390f35b34801561025d57600080fd5b5061027860048036038101906102739190611673565b610782565b60405161028591906115a1565b60405180910390f35b34801561029a57600080fd5b506102b560048036038101906102b09190611673565b61079a565b6040516102c291906115a1565b60405180910390f35b3480156102d757600080fd5b506102e06107e3565b6040516102ed91906116af565b60405180910390f35b34801561030257600080fd5b5061031d600480360381019061031891906117ff565b610809565b005b34801561032b57600080fd5b50610334610874565b60405161034191906115a1565b60405180910390f35b34801561035657600080fd5b50610371600480360381019061036c9190611673565b610884565b60405161037e91906115a1565b60405180910390f35b34801561039357600080fd5b5061039c6108cc565b005b3480156103aa57600080fd5b506103c560048036038101906103c0919061160f565b6108e0565b005b3480156103d357600080fd5b506103dc61093e565b6040516103e991906116af565b60405180910390f35b3480156103fe57600080fd5b50610407610968565b6040516104149190611452565b60405180910390f35b34801561042957600080fd5b50610444600480360381019061043f919061160f565b6109fa565b005b34801561045257600080fd5b5061046d6004803603810190610468919061151c565b610a0f565b60405161047a9190611577565b60405180910390f35b34801561048f57600080fd5b50610498610a32565b6040516104a59190611452565b60405180910390f35b3480156104ba57600080fd5b506104d560048036038101906104d091906118a6565b610ac0565b6040516104e291906115a1565b60405180910390f35b3480156104f757600080fd5b50610512600480360381019061050d9190611673565b610b47565b005b34801561052057600080fd5b50610529610bcd565b60405161053691906115a1565b60405180910390f35b60606003805461054e90611915565b80601f016020809104026020016040519081016040528092919081815260200182805461057a90611915565b80156105c75780601f1061059c576101008083540402835291602001916105c7565b820191906000526020600020905b8154815290600101906020018083116105aa57829003601f168201915b5050505050905090565b6000806105dc610bd3565b90506105e9818585610bdb565b600191505092915050565b6000600254905090565b600080610609610bd3565b9050610616858285610bed565b610621858585610c81565b60019150509392505050565b6006548161063b9190611975565b341461067c576040517f08c379a000000000000000000000000000000000000000000000000000000000815260040161067390611a03565b60405180910390fd5b8061068630610884565b10156106c7576040517f08c379a00000000000000000000000000000000000000000000000000000000081526004016106be90611a6f565b60405180910390fd5b6106d2303383610c81565b80600960003373ffffffffffffffffffffffffffffffffffffffff1673ffffffffffffffffffffffffffffffffffffffff16815260200190815260200160002060008282546107219190611a8f565b925050819055503373ffffffffffffffffffffffffffffffffffffffff167f8f28852646c20cc973d3a8218f7eefed58c25c909f78f0265af4818c3d4dc2718260405161076e91906115a1565b60405180910390a250565b60006012905090565b60096020528060005260406000206000915090505481565b6000600960008373ffffffffffffffffffffffffffffffffffffffff1673ffffffffffffffffffffffffffffffffffffffff168152602001908152602001600020549050919050565b600860009054906101000a900473ffffffffffffffffffffffffffffffffffffffff1681565b826040516108179190611aff565b60405180910390203373ffffffffffffffffffffffffffffffffffffffff167fe8fa5f3dfa6b8810ff0efb471e7609f50a1879449d8e2fbd313646bbd048819c8484604051610867929190611b16565b60405180910390a3505050565b600061087f30610884565b905090565b60008060008373ffffffffffffffffffffffffffffffffffffffff1673ffffffffffffffffffffffffffffffffffffffff168152602001908152602001600020549050919050565b6108d4610d75565b6108de6000610dfc565b565b6108ea3382610ec2565b3373ffffffffffffffffffffffffffffffffffffffff167ffad31924d655455395c87544c8aa1ffdb5a7505a22a3c2e03f28003b6556a75f826007604051610933929190611be6565b60405180910390a250565b6000600560009054906101000a900473ffffffffffffffffffffffffffffffffffffffff16905090565b60606004805461097790611915565b80601f01602080910402602001604051908101604052809291908181526020018280546109a390611915565b80156109f05780601f106109c5576101008083540402835291602001916109f0565b820191906000526020600020905b8154815290600101906020018083116109d357829003601f168201915b5050505050905090565b610a02610d75565b610a0c3082610f44565b50565b600080610a1a610bd3565b9050610a27818585610c81565b600191505092915050565b60078054610a3f90611915565b80601f0160208091040260200160405190810160405280929190818152602001828054610a6b90611915565b8015610ab85780601f10610a8d57610100808354040283529160200191610ab8565b820191906000526020600020905b815481529060010190602001808311610a9b57829003601f168201915b505050505081565b6000600160008473ffffffffffffffffffffffffffffffffffffffff1673ffffffffffffffffffffffffffffffffffffffff16815260200190815260200160002060008373ffffffffffffffffffffffffffffffffffffffff1673ffffffffffffffffffffffffffffffffffffffff16815260200190815260200160002054905092915050565b610b4f610d75565b600073ffffffffffffffffffffffffffffffffffffffff168173ffffffffffffffffffffffffffffffffffffffff1603610bc15760006040517f1e4fbdf7000000000000000000000000000000000000000000000000000000008152600401610bb891906116af565b60405180910390fd5b610bca81610dfc565b50565b60065481565b600033905090565b610be88383836001610fc6565b505050565b6000610bf98484610ac0565b90507fffffffffffffffffffffffffffffffffffffffffffffffffffffffffffffffff8114610c7b5781811015610c6b578281836040517ffb8f41b2000000000000000000000000000000000000000000000000000000008152600401610c6293929190611c16565b60405180910390fd5b610c7a84848484036000610fc6565b5b50505050565b600073ffffffffffffffffffffffffffffffffffffffff168373ffffffffffffffffffffffffffffffffffffffff1603610cf35760006040517f96c6fd1e000000000000000000000000000000000000000000000000000000008152600401610cea91906116af565b60405180910390fd5b600073ffffffffffffffffffffffffffffffffffffffff168273ffffffffffffffffffffffffffffffffffffffff1603610d655760006040517fec442f05000000000000000000000000000000000000000000000000000000008152600401610d5c91906116af565b60405180910390fd5b610d7083838361119d565b505050565b610d7d610bd3565b73ffffffffffffffffffffffffffffffffffffffff16610d9b61093e565b73ffffffffffffffffffffffffffffffffffffffff1614610dfa57610dbe610bd3565b6040517f118cdaa7000000000000000000000000000000000000000000000000000000008152600401610df191906116af565b60405180910390fd5b565b6000600560009054906101000a900473ffffffffffffffffffffffffffffffffffffffff16905081600560006101000a81548173ffffffffffffffffffffffffffffffffffffffff021916908373ffffffffffffffffffffffffffffffffffffffff1602179055508173ffffffffffffffffffffffffffffffffffffffff168173ffffffffffffffffffffffffffffffffffffffff167f8be0079c531659141344cd1fd0a4f28419497f9722a3daafe3b4186f6b6457e060405160405180910390a35050565b600073ffffffffffffffffffffffffffffffffffffffff168273ffffffffffffffffffffffffffffffffffffffff1603610f345760006040517f96c6fd1e000000000000000000000000000000000000000000000000000000008152600401610f2b91906116af565b60405180910390fd5b610f408260008361119d565b5050565b600073ffffffffffffffffffffffffffffffffffffffff168273ffffffffffffffffffffffffffffffffffffffff1603610fb65760006040517fec442f05000000000000000000000000000000000000000000000000000000008152600401610fad91906116af565b60405180910390fd5b610fc26000838361119d565b5050565b600073ffffffffffffffffffffffffffffffffffffffff168473ffffffffffffffffffffffffffffffffffffffff16036110385760006040517fe602df0500000000000000000000000000000000000000000000000000000000815260040161102f91906116af565b60405180910390fd5b600073ffffffffffffffffffffffffffffffffffffffff168373ffffffffffffffffffffffffffffffffffffffff16036110aa5760006040517f94280d620000000000000000000000000000000000000000000000000000000081526004016110a191906116af565b60405180910390fd5b81600160008673ffffffffffffffffffffffffffffffffffffffff1673ffffffffffffffffffffffffffffffffffffffff16815260200190815260200160002060008573ffffffffffffffffffffffffffffffffffffffff1673ffffffffffffffffffffffffffffffffffffffff168152602001908152602001600020819055508015611197578273ffffffffffffffffffffffffffffffffffffffff168473ffffffffffffffffffffffffffffffffffffffff167f8c5be1e5ebec7d5bd14f71427d1e84f3dd0314c0f7b2291e5b200ac8c7c3b9258460405161118e91906115a1565b60405180910390a35b50505050565b600073ffffffffffffffffffffffffffffffffffffffff168373ffffffffffffffffffffffffffffffffffffffff16036111ef5780600260008282546111e39190611a8f565b925050819055506112c2565b60008060008573ffffffffffffffffffffffffffffffffffffffff1673ffffffffffffffffffffffffffffffffffffffff1681526020019081526020016000205490508181101561127b578381836040517fe450d38c00000000000000000000000000000000000000000000000000000000815260040161127293929190611c16565b60405180910390fd5b8181036000808673ffffffffffffffffffffffffffffffffffffffff1673ffffffffffffffffffffffffffffffffffffffff16815260200190815260200160002081905550505b600073ffffffffffffffffffffffffffffffffffffffff168273ffffffffffffffffffffffffffffffffffffffff160361130b5780600260008282540392505081905550611358565b806000808473ffffffffffffffffffffffffffffffffffffffff1673ffffffffffffffffffffffffffffffffffffffff168152602001908152602001600020600082825401925050819055505b8173ffffffffffffffffffffffffffffffffffffffff168373ffffffffffffffffffffffffffffffffffffffff167fddf252ad1be2c89b69c2b068fc378daa952ba7f163c4a11628f55a4df523b3ef836040516113b591906115a1565b60405180910390a3505050565b600081519050919050565b600082825260208201905092915050565b60005b838110156113fc5780820151818401526020810190506113e1565b60008484015250505050565b6000601f19601f8301169050919050565b6000611424826113c2565b61142e81856113cd565b935061143e8185602086016113de565b61144781611408565b840191505092915050565b6000602082019050818103600083015261146c8184611419565b905092915050565b6000604051905090565b600080fd5b600080fd5b600073ffffffffffffffffffffffffffffffffffffffff82169050919050565b60006114b382611488565b9050919050565b6114c3816114a8565b81146114ce57600080fd5b50565b6000813590506114e0816114ba565b92915050565b6000819050919050565b6114f9816114e6565b811461150457600080fd5b50565b600081359050611516816114f0565b92915050565b600080604083850312156115335761153261147e565b5b6000611541858286016114d1565b925050602061155285828601611507565b9150509250929050565b60008115159050919050565b6115718161155c565b82525050565b600060208201905061158c6000830184611568565b92915050565b61159b816114e6565b82525050565b60006020820190506115b66000830184611592565b92915050565b6000806000606084860312156115d5576115d461147e565b5b60006115e3868287016114d1565b93505060206115f4868287016114d1565b925050604061160586828701611507565b9150509250925092565b6000602082840312156116255761162461147e565b5b600061163384828501611507565b91505092915050565b600060ff82169050919050565b6116528161163c565b82525050565b600060208201905061166d6000830184611649565b92915050565b6000602082840312156116895761168861147e565b5b6000611697848285016114d1565b91505092915050565b6116a9816114a8565b82525050565b60006020820190506116c460008301846116a0565b92915050565b600080fd5b600080fd5b7f4e487b7100000000000000000000000000000000000000000000000000000000600052604160045260246000fd5b61170c82611408565b810181811067ffffffffffffffff8211171561172b5761172a6116d4565b5b80604052505050565b600061173e611474565b905061174a8282611703565b919050565b600067ffffffffffffffff82111561176a576117696116d4565b5b61177382611408565b9050602081019050919050565b82818337600083830152505050565b60006117a261179d8461174f565b611734565b9050828152602081018484840111156117be576117bd6116cf565b5b6117c9848285611780565b509392505050565b600082601f8301126117e6576117e56116ca565b5b81356117f684826020860161178f565b91505092915050565b6000806000606084860312156118185761181761147e565b5b600084013567ffffffffffffffff81111561183657611835611483565b5b611842868287016117d1565b935050602084013567ffffffffffffffff81111561186357611862611483565b5b61186f868287016117d1565b925050604084013567ffffffffffffffff8111156118905761188f611483565b5b61189c868287016117d1565b9150509250925092565b600080604083850312156118bd576118bc61147e565b5b60006118cb858286016114d1565b92505060206118dc858286016114d1565b9150509250929050565b7f4e487b7100000000000000000000000000000000000000000000000000000000600052602260045260246000fd5b6000600282049050600182168061192d57607f821691505b6020821081036119405761193f6118e6565b5b50919050565b7f4e487b7100000000000000000000000000000000000000000000000000000000600052601160045260246000fd5b6000611980826114e6565b915061198b836114e6565b9250828202611999816114e6565b915082820484148315176119b0576119af611946565b5b5092915050565b7f496e636f7272656374207061796d656e7420616d6f756e740000000000000000600082015250565b60006119ed6018836113cd565b91506119f8826119b7565b602082019050919050565b60006020820190508181036000830152611a1c816119e0565b9050919050565b7f4e6f7420656e6f75676820746f6b656e7320617661696c61626c650000000000600082015250565b6000611a59601b836113cd565b9150611a6482611a23565b602082019050919050565b60006020820190508181036000830152611a8881611a4c565b9050919050565b6000611a9a826114e6565b9150611aa5836114e6565b9250828201905080821115611abd57611abc611946565b5b92915050565b600081905092915050565b6000611ad9826113c2565b611ae38185611ac3565b9350611af38185602086016113de565b80840191505092915050565b6000611b0b8284611ace565b915081905092915050565b60006040820190508181036000830152611b308185611419565b90508181036020830152611b448184611419565b90509392505050565b60008190508160005260206000209050919050565b60008154611b6f81611915565b611b7981866113cd565b94506001821660008114611b945760018114611baa57611bdd565b60ff198316865281151560200286019350611bdd565b611bb385611b4d565b60005b83811015611bd557815481890152600182019150602081019050611bb6565b808801955050505b50505092915050565b6000604082019050611bfb6000830185611592565b8181036020830152611c0d8184611b62565b90509392505050565b6000606082019050611c2b60008301866116a0565b611c386020830185611592565b611c456040830184611592565b94935050505056fea2646970667358221220549daee92d4f278e9ad8348ccf246786fef408eedaa070b7375d424931a89a0c64736f6c63430008180033",
  "linkReferences": {},
  "deployedLinkReferences": {}
}